{
  "_format": "hh-sol-artifact-1",
  "contractName": "NFT",
  "sourceName": "contracts/NFT.sol",
  "abi": [
    {
      "inputs": [],
      "stateMutability": "nonpayable",
      "type": "constructor"
    },
    {
      "inputs": [
        {
          "internalType": "address",
          "name": "sender",
          "type": "address"
        },
        {
          "internalType": "uint256",
          "name": "tokenId",
          "type": "uint256"
        },
        {
          "internalType": "address",
          "name": "owner",
          "type": "address"
        }
      ],
      "name": "ERC721IncorrectOwner",
      "type": "error"
    },
    {
      "inputs": [
        {
          "internalType": "address",
          "name": "operator",
          "type": "address"
        },
        {
          "internalType": "uint256",
          "name": "tokenId",
          "type": "uint256"
        }
      ],
      "name": "ERC721InsufficientApproval",
      "type": "error"
    },
    {
      "inputs": [
        {
          "internalType": "address",
          "name": "approver",
          "type": "address"
        }
      ],
      "name": "ERC721InvalidApprover",
      "type": "error"
    },
    {
      "inputs": [
        {
          "internalType": "address",
          "name": "operator",
          "type": "address"
        }
      ],
      "name": "ERC721InvalidOperator",
      "type": "error"
    },
    {
      "inputs": [
        {
          "internalType": "address",
          "name": "owner",
          "type": "address"
        }
      ],
      "name": "ERC721InvalidOwner",
      "type": "error"
    },
    {
      "inputs": [
        {
          "internalType": "address",
          "name": "receiver",
          "type": "address"
        }
      ],
      "name": "ERC721InvalidReceiver",
      "type": "error"
    },
    {
      "inputs": [
        {
          "internalType": "address",
          "name": "sender",
          "type": "address"
        }
      ],
      "name": "ERC721InvalidSender",
      "type": "error"
    },
    {
      "inputs": [
        {
          "internalType": "uint256",
          "name": "tokenId",
          "type": "uint256"
        }
      ],
      "name": "ERC721NonexistentToken",
      "type": "error"
    },
    {
      "inputs": [
        {
          "internalType": "address",
          "name": "owner",
          "type": "address"
        }
      ],
      "name": "OwnableInvalidOwner",
      "type": "error"
    },
    {
      "inputs": [
        {
          "internalType": "address",
          "name": "account",
          "type": "address"
        }
      ],
      "name": "OwnableUnauthorizedAccount",
      "type": "error"
    },
    {
      "anonymous": false,
      "inputs": [
        {
          "indexed": true,
          "internalType": "address",
          "name": "owner",
          "type": "address"
        },
        {
          "indexed": true,
          "internalType": "address",
          "name": "approved",
          "type": "address"
        },
        {
          "indexed": true,
          "internalType": "uint256",
          "name": "tokenId",
          "type": "uint256"
        }
      ],
      "name": "Approval",
      "type": "event"
    },
    {
      "anonymous": false,
      "inputs": [
        {
          "indexed": true,
          "internalType": "address",
          "name": "owner",
          "type": "address"
        },
        {
          "indexed": true,
          "internalType": "address",
          "name": "operator",
          "type": "address"
        },
        {
          "indexed": false,
          "internalType": "bool",
          "name": "approved",
          "type": "bool"
        }
      ],
      "name": "ApprovalForAll",
      "type": "event"
    },
    {
      "anonymous": false,
      "inputs": [
        {
          "indexed": false,
          "internalType": "uint256",
          "name": "_fromTokenId",
          "type": "uint256"
        },
        {
          "indexed": false,
          "internalType": "uint256",
          "name": "_toTokenId",
          "type": "uint256"
        }
      ],
      "name": "BatchMetadataUpdate",
      "type": "event"
    },
    {
      "anonymous": false,
      "inputs": [
        {
          "indexed": false,
          "internalType": "uint256",
          "name": "_tokenId",
          "type": "uint256"
        }
      ],
      "name": "MetadataUpdate",
      "type": "event"
    },
    {
      "anonymous": false,
      "inputs": [
        {
          "indexed": true,
          "internalType": "address",
          "name": "minter",
          "type": "address"
        }
      ],
      "name": "MinterApproved",
      "type": "event"
    },
    {
      "anonymous": false,
      "inputs": [
        {
          "indexed": true,
          "internalType": "address",
          "name": "minter",
          "type": "address"
        }
      ],
      "name": "MinterRevoked",
      "type": "event"
    },
    {
      "anonymous": false,
      "inputs": [
        {
          "indexed": true,
          "internalType": "uint256",
          "name": "tokenId",
          "type": "uint256"
        },
        {
          "indexed": true,
          "internalType": "address",
          "name": "to",
          "type": "address"
        },
        {
          "indexed": false,
          "internalType": "string",
          "name": "tokenURI",
          "type": "string"
        }
      ],
      "name": "NFTMinted",
      "type": "event"
    },
    {
      "anonymous": false,
      "inputs": [
        {
          "indexed": true,
          "internalType": "address",
          "name": "previousOwner",
          "type": "address"
        },
        {
          "indexed": true,
          "internalType": "address",
          "name": "newOwner",
          "type": "address"
        }
      ],
      "name": "OwnershipTransferred",
      "type": "event"
    },
    {
      "anonymous": false,
      "inputs": [
        {
          "indexed": true,
          "internalType": "address",
          "name": "from",
          "type": "address"
        },
        {
          "indexed": true,
          "internalType": "address",
          "name": "to",
          "type": "address"
        },
        {
          "indexed": true,
          "internalType": "uint256",
          "name": "tokenId",
          "type": "uint256"
        }
      ],
      "name": "Transfer",
      "type": "event"
    },
    {
      "inputs": [
        {
          "internalType": "address",
          "name": "to",
          "type": "address"
        },
        {
          "internalType": "uint256",
          "name": "tokenId",
          "type": "uint256"
        }
      ],
      "name": "approve",
      "outputs": [],
      "stateMutability": "nonpayable",
      "type": "function"
    },
    {
      "inputs": [
        {
          "internalType": "address",
          "name": "minter",
          "type": "address"
        }
      ],
      "name": "approveMinter",
      "outputs": [],
      "stateMutability": "nonpayable",
      "type": "function"
    },
    {
      "inputs": [
        {
          "internalType": "address",
          "name": "",
          "type": "address"
        }
      ],
      "name": "approvedMinters",
      "outputs": [
        {
          "internalType": "bool",
          "name": "",
          "type": "bool"
        }
      ],
      "stateMutability": "view",
      "type": "function"
    },
    {
      "inputs": [
        {
          "internalType": "address",
          "name": "owner",
          "type": "address"
        }
      ],
      "name": "balanceOf",
      "outputs": [
        {
          "internalType": "uint256",
          "name": "",
          "type": "uint256"
        }
      ],
      "stateMutability": "view",
      "type": "function"
    },
    {
      "inputs": [
        {
          "internalType": "uint256",
          "name": "tokenId",
          "type": "uint256"
        }
      ],
      "name": "exists",
      "outputs": [
        {
          "internalType": "bool",
          "name": "",
          "type": "bool"
        }
      ],
      "stateMutability": "view",
      "type": "function"
    },
    {
      "inputs": [
        {
          "internalType": "uint256",
          "name": "tokenId",
          "type": "uint256"
        }
      ],
      "name": "getApproved",
      "outputs": [
        {
          "internalType": "address",
          "name": "",
          "type": "address"
        }
      ],
      "stateMutability": "view",
      "type": "function"
    },
    {
      "inputs": [],
      "name": "getCurrentTokenId",
      "outputs": [
        {
          "internalType": "uint256",
          "name": "",
          "type": "uint256"
        }
      ],
      "stateMutability": "view",
      "type": "function"
    },
    {
      "inputs": [
        {
          "internalType": "address",
          "name": "owner",
          "type": "address"
        },
        {
          "internalType": "address",
          "name": "operator",
          "type": "address"
        }
      ],
      "name": "isApprovedForAll",
      "outputs": [
        {
          "internalType": "bool",
          "name": "",
          "type": "bool"
        }
      ],
      "stateMutability": "view",
      "type": "function"
    },
    {
      "inputs": [
        {
          "internalType": "address",
          "name": "to",
          "type": "address"
        },
        {
          "internalType": "string",
          "name": "uri",
          "type": "string"
        }
      ],
      "name": "mint",
      "outputs": [
        {
          "internalType": "uint256",
          "name": "",
          "type": "uint256"
        }
      ],
      "stateMutability": "nonpayable",
      "type": "function"
    },
    {
      "inputs": [],
      "name": "name",
      "outputs": [
        {
          "internalType": "string",
          "name": "",
          "type": "string"
        }
      ],
      "stateMutability": "view",
      "type": "function"
    },
    {
      "inputs": [],
      "name": "owner",
      "outputs": [
        {
          "internalType": "address",
          "name": "",
          "type": "address"
        }
      ],
      "stateMutability": "view",
      "type": "function"
    },
    {
      "inputs": [
        {
          "internalType": "uint256",
          "name": "tokenId",
          "type": "uint256"
        }
      ],
      "name": "ownerOf",
      "outputs": [
        {
          "internalType": "address",
          "name": "",
          "type": "address"
        }
      ],
      "stateMutability": "view",
      "type": "function"
    },
    {
      "inputs": [],
      "name": "renounceOwnership",
      "outputs": [],
      "stateMutability": "nonpayable",
      "type": "function"
    },
    {
      "inputs": [
        {
          "internalType": "address",
          "name": "minter",
          "type": "address"
        }
      ],
      "name": "revokeMinter",
      "outputs": [],
      "stateMutability": "nonpayable",
      "type": "function"
    },
    {
      "inputs": [
        {
          "internalType": "address",
          "name": "from",
          "type": "address"
        },
        {
          "internalType": "address",
          "name": "to",
          "type": "address"
        },
        {
          "internalType": "uint256",
          "name": "tokenId",
          "type": "uint256"
        }
      ],
      "name": "safeTransferFrom",
      "outputs": [],
      "stateMutability": "nonpayable",
      "type": "function"
    },
    {
      "inputs": [
        {
          "internalType": "address",
          "name": "from",
          "type": "address"
        },
        {
          "internalType": "address",
          "name": "to",
          "type": "address"
        },
        {
          "internalType": "uint256",
          "name": "tokenId",
          "type": "uint256"
        },
        {
          "internalType": "bytes",
          "name": "data",
          "type": "bytes"
        }
      ],
      "name": "safeTransferFrom",
      "outputs": [],
      "stateMutability": "nonpayable",
      "type": "function"
    },
    {
      "inputs": [
        {
          "internalType": "address",
          "name": "operator",
          "type": "address"
        },
        {
          "internalType": "bool",
          "name": "approved",
          "type": "bool"
        }
      ],
      "name": "setApprovalForAll",
      "outputs": [],
      "stateMutability": "nonpayable",
      "type": "function"
    },
    {
      "inputs": [
        {
          "internalType": "bytes4",
          "name": "interfaceId",
          "type": "bytes4"
        }
      ],
      "name": "supportsInterface",
      "outputs": [
        {
          "internalType": "bool",
          "name": "",
          "type": "bool"
        }
      ],
      "stateMutability": "view",
      "type": "function"
    },
    {
      "inputs": [],
      "name": "symbol",
      "outputs": [
        {
          "internalType": "string",
          "name": "",
          "type": "string"
        }
      ],
      "stateMutability": "view",
      "type": "function"
    },
    {
      "inputs": [
        {
          "internalType": "uint256",
          "name": "tokenId",
          "type": "uint256"
        }
      ],
      "name": "tokenURI",
      "outputs": [
        {
          "internalType": "string",
          "name": "",
          "type": "string"
        }
      ],
      "stateMutability": "view",
      "type": "function"
    },
    {
      "inputs": [],
      "name": "totalSupply",
      "outputs": [
        {
          "internalType": "uint256",
          "name": "",
          "type": "uint256"
        }
      ],
      "stateMutability": "view",
      "type": "function"
    },
    {
      "inputs": [
        {
          "internalType": "address",
          "name": "from",
          "type": "address"
        },
        {
          "internalType": "address",
          "name": "to",
          "type": "address"
        },
        {
          "internalType": "uint256",
          "name": "tokenId",
          "type": "uint256"
        }
      ],
      "name": "transferFrom",
      "outputs": [],
      "stateMutability": "nonpayable",
      "type": "function"
    },
    {
      "inputs": [
        {
          "internalType": "address",
          "name": "newOwner",
          "type": "address"
        }
      ],
      "name": "transferOwnership",
      "outputs": [],
      "stateMutability": "nonpayable",
      "type": "function"
    }
  ],
  "bytecode": "0x60806040523480156200001157600080fd5b503360405180604001604052806008815260200167135bdb985913919560c21b815250604051806040016040528060048152602001631353919560e21b8152508160009081620000629190620001b1565b506001620000718282620001b1565b5050506001600160a01b038116620000a357604051631e4fbdf760e01b81526000600482015260240160405180910390fd5b620000ae81620000ba565b5060016008556200027d565b600780546001600160a01b038381166001600160a01b0319831681179093556040519116919082907f8be0079c531659141344cd1fd0a4f28419497f9722a3daafe3b4186f6b6457e090600090a35050565b634e487b7160e01b600052604160045260246000fd5b600181811c908216806200013757607f821691505b6020821081036200015857634e487b7160e01b600052602260045260246000fd5b50919050565b601f821115620001ac57600081815260208120601f850160051c81016020861015620001875750805b601f850160051c820191505b81811015620001a85782815560010162000193565b5050505b505050565b81516001600160401b03811115620001cd57620001cd6200010c565b620001e581620001de845462000122565b846200015e565b602080601f8311600181146200021d5760008415620002045750858301515b600019600386901b1c1916600185901b178555620001a8565b600085815260208120601f198616915b828110156200024e578886015182559484019460019091019084016200022d565b50858210156200026d5787850151600019600388901b60f8161c191681555b5050505050600190811b01905550565b61179a806200028d6000396000f3fe608060405234801561001057600080fd5b506004361061014d5760003560e01c806370a08231116100c3578063b88d4fde1161007c578063b88d4fde146102ce578063c87b56dd146102e1578063cfbd4885146102f4578063d0def52114610307578063e985e9c51461031a578063f2fde38b1461032d57600080fd5b806370a0823114610264578063715018a6146102775780638da5cb5b1461027f57806395d89b4114610290578063a22cb46514610298578063a8b5e6ea146102ab57600080fd5b806323b872dd1161011557806323b872dd146101e557806342842e0e146101f85780634d197a9b1461020b5780634f558e791461021e57806356189236146102495780636352211e1461025157600080fd5b806301ffc9a71461015257806306fdde031461017a578063081812fc1461018f578063095ea7b3146101ba57806318160ddd146101cf575b600080fd5b61016561016036600461124a565b610340565b60405190151581526020015b60405180910390f35b610182610351565b60405161017191906112b7565b6101a261019d3660046112ca565b6103e3565b6040516001600160a01b039091168152602001610171565b6101cd6101c83660046112ff565b61040c565b005b6101d761041b565b604051908152602001610171565b6101cd6101f3366004611329565b610431565b6101cd610206366004611329565b6104c1565b6101cd610219366004611365565b6104e1565b61016561022c3660046112ca565b6000908152600260205260409020546001600160a01b0316151590565b6008546101d7565b6101a261025f3660046112ca565b61058b565b6101d7610272366004611365565b610596565b6101cd6105de565b6007546001600160a01b03166101a2565b6101826105f2565b6101cd6102a6366004611380565b610601565b6101656102b9366004611365565b60096020526000908152604090205460ff1681565b6101cd6102dc366004611448565b61060c565b6101826102ef3660046112ca565b610624565b6101cd610302366004611365565b61062f565b6101d76103153660046114c4565b610680565b610165610328366004611526565b610826565b6101cd61033b366004611365565b610854565b600061034b82610892565b92915050565b60606000805461036090611559565b80601f016020809104026020016040519081016040528092919081815260200182805461038c90611559565b80156103d95780601f106103ae576101008083540402835291602001916103d9565b820191906000526020600020905b8154815290600101906020018083116103bc57829003601f168201915b5050505050905090565b60006103ee826108b7565b506000828152600460205260409020546001600160a01b031661034b565b6104178282336108f0565b5050565b6000600160085461042c91906115a9565b905090565b6001600160a01b03821661046057604051633250574960e11b8152600060048201526024015b60405180910390fd5b600061046d8383336108fd565b9050836001600160a01b0316816001600160a01b0316146104bb576040516364283d7b60e01b81526001600160a01b0380861660048301526024820184905282166044820152606401610457565b50505050565b6104dc8383836040518060200160405280600081525061060c565b505050565b6104e96109f6565b6001600160a01b03811661053f5760405162461bcd60e51b815260206004820181905260248201527f4e46543a2063616e6e6f7420617070726f7665207a65726f20616464726573736044820152606401610457565b6001600160a01b038116600081815260096020526040808220805460ff19166001179055517f19fab8fc4f22fa82f8e0e29a8828c8401adddd9bd6fc71f05848c143b84c4d4f9190a250565b600061034b826108b7565b60006001600160a01b0382166105c2576040516322718ad960e21b815260006004820152602401610457565b506001600160a01b031660009081526003602052604090205490565b6105e66109f6565b6105f06000610a23565b565b60606001805461036090611559565b610417338383610a75565b610617848484610431565b6104bb3385858585610b14565b606061034b82610c3f565b6106376109f6565b6001600160a01b038116600081815260096020526040808220805460ff19169055517f44f4322f8daa225d5f4877ad0f7d3dfba248a774396f3ca99405ed40a044fe819190a250565b6007546000906001600160a01b03163314806106ab57503360009081526009602052604090205460ff165b61070b5760405162461bcd60e51b815260206004820152602b60248201527f4e46543a2063616c6c6572206973206e6f74206f776e6572206f72206170707260448201526a37bb32b21036b4b73a32b960a91b6064820152608401610457565b6001600160a01b0383166107615760405162461bcd60e51b815260206004820181905260248201527f4e46543a2063616e6e6f74206d696e7420746f207a65726f20616464726573736044820152606401610457565b60008251116107b25760405162461bcd60e51b815260206004820152601d60248201527f4e46543a20746f6b656e5552492063616e6e6f7420626520656d7074790000006044820152606401610457565b6008805490819060006107c4836115bc565b91905055506107d38482610d50565b6107dd8184610d6a565b836001600160a01b0316817f06becd955c918828f6e985541acbf49cc842c9e9bd569fffc7698e721ef135758560405161081791906112b7565b60405180910390a39392505050565b6001600160a01b03918216600090815260056020908152604080832093909416825291909152205460ff1690565b61085c6109f6565b6001600160a01b03811661088657604051631e4fbdf760e01b815260006004820152602401610457565b61088f81610a23565b50565b60006001600160e01b03198216632483248360e11b148061034b575061034b82610dba565b6000818152600260205260408120546001600160a01b03168061034b57604051637e27328960e01b815260048101849052602401610457565b6104dc8383836001610e0a565b6000828152600260205260408120546001600160a01b039081169083161561092a5761092a818486610f10565b6001600160a01b0381161561096857610947600085600080610e0a565b6001600160a01b038116600090815260036020526040902080546000190190555b6001600160a01b03851615610997576001600160a01b0385166000908152600360205260409020805460010190555b60008481526002602052604080822080546001600160a01b0319166001600160a01b0389811691821790925591518793918516917fddf252ad1be2c89b69c2b068fc378daa952ba7f163c4a11628f55a4df523b3ef91a4949350505050565b6007546001600160a01b031633146105f05760405163118cdaa760e01b8152336004820152602401610457565b600780546001600160a01b038381166001600160a01b0319831681179093556040519116919082907f8be0079c531659141344cd1fd0a4f28419497f9722a3daafe3b4186f6b6457e090600090a35050565b6001600160a01b038216610aa757604051630b61174360e31b81526001600160a01b0383166004820152602401610457565b6001600160a01b03838116600081815260056020908152604080832094871680845294825291829020805460ff191686151590811790915591519182527f17307eab39ab6107e8899845ad3d59bd9653f200f220920489ca2b5937696c31910160405180910390a3505050565b6001600160a01b0383163b15610c3857604051630a85bd0160e11b81526001600160a01b0384169063150b7a0290610b569088908890879087906004016115d5565b6020604051808303816000875af1925050508015610b91575060408051601f3d908101601f19168201909252610b8e91810190611612565b60015b610bfa573d808015610bbf576040519150601f19603f3d011682016040523d82523d6000602084013e610bc4565b606091505b508051600003610bf257604051633250574960e11b81526001600160a01b0385166004820152602401610457565b805160208201fd5b6001600160e01b03198116630a85bd0160e11b14610c3657604051633250574960e11b81526001600160a01b0385166004820152602401610457565b505b5050505050565b6060610c4a826108b7565b5060008281526006602052604081208054610c6490611559565b80601f0160208091040260200160405190810160405280929190818152602001828054610c9090611559565b8015610cdd5780601f10610cb257610100808354040283529160200191610cdd565b820191906000526020600020905b815481529060010190602001808311610cc057829003601f168201915b505050505090506000610cfb60408051602081019091526000815290565b90508051600003610d0d575092915050565b815115610d3f578082604051602001610d2792919061162f565b60405160208183030381529060405292505050919050565b610d4884610f74565b949350505050565b610417828260405180602001604052806000815250610fe9565b6000828152600660205260409020610d8282826116a4565b506040518281527ff8e1a15aba9398e019f0b49df1a4fde98ee17ae345cb5f6b5e2c27f5033e8ce79060200160405180910390a15050565b60006001600160e01b031982166380ac58cd60e01b1480610deb57506001600160e01b03198216635b5e139f60e01b145b8061034b57506301ffc9a760e01b6001600160e01b031983161461034b565b8080610e1e57506001600160a01b03821615155b15610ee0576000610e2e846108b7565b90506001600160a01b03831615801590610e5a5750826001600160a01b0316816001600160a01b031614155b8015610e6d5750610e6b8184610826565b155b15610e965760405163a9fbf51f60e01b81526001600160a01b0384166004820152602401610457565b8115610ede5783856001600160a01b0316826001600160a01b03167f8c5be1e5ebec7d5bd14f71427d1e84f3dd0314c0f7b2291e5b200ac8c7c3b92560405160405180910390a45b505b5050600090815260046020526040902080546001600160a01b0319166001600160a01b0392909216919091179055565b610f1b838383611001565b6104dc576001600160a01b038316610f4957604051637e27328960e01b815260048101829052602401610457565b60405163177e802f60e01b81526001600160a01b038316600482015260248101829052604401610457565b6060610f7f826108b7565b506000610f9760408051602081019091526000815290565b90506000815111610fb75760405180602001604052806000815250610fe2565b80610fc184611064565b604051602001610fd292919061162f565b6040516020818303038152906040525b9392505050565b610ff383836110f7565b6104dc336000858585610b14565b60006001600160a01b03831615801590610d485750826001600160a01b0316846001600160a01b0316148061103b575061103b8484610826565b80610d485750506000908152600460205260409020546001600160a01b03908116911614919050565b606060006110718361115c565b600101905060008167ffffffffffffffff811115611091576110916113bc565b6040519080825280601f01601f1916602001820160405280156110bb576020820181803683370190505b5090508181016020015b600019016f181899199a1a9b1b9c1cb0b131b232b360811b600a86061a8153600a85049450846110c557509392505050565b6001600160a01b03821661112157604051633250574960e11b815260006004820152602401610457565b600061112f838360006108fd565b90506001600160a01b038116156104dc576040516339e3563760e11b815260006004820152602401610457565b60008072184f03e93ff9f4daa797ed6e38ed64bf6a1f0160401b831061119b5772184f03e93ff9f4daa797ed6e38ed64bf6a1f0160401b830492506040015b6d04ee2d6d415b85acef810000000083106111c7576d04ee2d6d415b85acef8100000000830492506020015b662386f26fc1000083106111e557662386f26fc10000830492506010015b6305f5e10083106111fd576305f5e100830492506008015b612710831061121157612710830492506004015b60648310611223576064830492506002015b600a831061034b5760010192915050565b6001600160e01b03198116811461088f57600080fd5b60006020828403121561125c57600080fd5b8135610fe281611234565b60005b8381101561128257818101518382015260200161126a565b50506000910152565b600081518084526112a3816020860160208601611267565b601f01601f19169290920160200192915050565b602081526000610fe2602083018461128b565b6000602082840312156112dc57600080fd5b5035919050565b80356001600160a01b03811681146112fa57600080fd5b919050565b6000806040838503121561131257600080fd5b61131b836112e3565b946020939093013593505050565b60008060006060848603121561133e57600080fd5b611347846112e3565b9250611355602085016112e3565b9150604084013590509250925092565b60006020828403121561137757600080fd5b610fe2826112e3565b6000806040838503121561139357600080fd5b61139c836112e3565b9150602083013580151581146113b157600080fd5b809150509250929050565b634e487b7160e01b600052604160045260246000fd5b600067ffffffffffffffff808411156113ed576113ed6113bc565b604051601f8501601f19908116603f01168101908282118183101715611415576114156113bc565b8160405280935085815286868601111561142e57600080fd5b858560208301376000602087830101525050509392505050565b6000806000806080858703121561145e57600080fd5b611467856112e3565b9350611475602086016112e3565b925060408501359150606085013567ffffffffffffffff81111561149857600080fd5b8501601f810187136114a957600080fd5b6114b8878235602084016113d2565b91505092959194509250565b600080604083850312156114d757600080fd5b6114e0836112e3565b9150602083013567ffffffffffffffff8111156114fc57600080fd5b8301601f8101851361150d57600080fd5b61151c858235602084016113d2565b9150509250929050565b6000806040838503121561153957600080fd5b611542836112e3565b9150611550602084016112e3565b90509250929050565b600181811c9082168061156d57607f821691505b60208210810361158d57634e487b7160e01b600052602260045260246000fd5b50919050565b634e487b7160e01b600052601160045260246000fd5b8181038181111561034b5761034b611593565b6000600182016115ce576115ce611593565b5060010190565b6001600160a01b03858116825284166020820152604081018390526080606082018190526000906116089083018461128b565b9695505050505050565b60006020828403121561162457600080fd5b8151610fe281611234565b60008351611641818460208801611267565b835190830190611655818360208801611267565b01949350505050565b601f8211156104dc57600081815260208120601f850160051c810160208610156116855750805b601f850160051c820191505b81811015610c3657828155600101611691565b815167ffffffffffffffff8111156116be576116be6113bc565b6116d2816116cc8454611559565b8461165e565b602080601f83116001811461170757600084156116ef5750858301515b600019600386901b1c1916600185901b178555610c36565b600085815260208120601f198616915b8281101561173657888601518255948401946001909101908401611717565b50858210156117545787850151600019600388901b60f8161c191681555b5050505050600190811b0190555056fea2646970667358221220a9fe99d66ce58ccb5b407d2b3782f025f9e74cb79af384be96e3e424303d822864736f6c63430008140033",
  "linkReferences": {},
  "deployedLinkReferences": {}
}