{
  "_format": "hh-sol-artifact-1",
  "contractName": "Marketplace",
  "sourceName": "contracts/Marketplace.sol",
  "abi": [
    {
      "inputs": [],
      "stateMutability": "nonpayable",
      "type": "constructor"
    },
    {
      "inputs": [
        {
          "internalType": "address",
          "name": "owner",
          "type": "address"
        }
      ],
      "name": "OwnableInvalidOwner",
      "type": "error"
    },
    {
      "inputs": [
        {
          "internalType": "address",
          "name": "account",
          "type": "address"
        }
      ],
      "name": "OwnableUnauthorizedAccount",
      "type": "error"
    },
    {
      "inputs": [],
      "name": "ReentrancyGuardReentrantCall",
      "type": "error"
    },
    {
      "anonymous": false,
      "inputs": [
        {
          "indexed": true,
          "internalType": "address",
          "name": "seller",
          "type": "address"
        },
        {
          "indexed": false,
          "internalType": "uint256",
          "name": "amount",
          "type": "uint256"
        }
      ],
      "name": "EarningsWithdrawn",
      "type": "event"
    },
    {
      "anonymous": false,
      "inputs": [
        {
          "indexed": true,
          "internalType": "address",
          "name": "owner",
          "type": "address"
        },
        {
          "indexed": false,
          "internalType": "uint256",
          "name": "amount",
          "type": "uint256"
        }
      ],
      "name": "FeesWithdrawn",
      "type": "event"
    },
    {
      "anonymous": false,
      "inputs": [
        {
          "indexed": true,
          "internalType": "uint256",
          "name": "listingId",
          "type": "uint256"
        },
        {
          "indexed": true,
          "internalType": "uint256",
          "name": "tokenId",
          "type": "uint256"
        },
        {
          "indexed": true,
          "internalType": "address",
          "name": "nftContract",
          "type": "address"
        },
        {
          "indexed": false,
          "internalType": "address",
          "name": "seller",
          "type": "address"
        }
      ],
      "name": "ItemDelisted",
      "type": "event"
    },
    {
      "anonymous": false,
      "inputs": [
        {
          "indexed": true,
          "internalType": "uint256",
          "name": "listingId",
          "type": "uint256"
        },
        {
          "indexed": true,
          "internalType": "uint256",
          "name": "tokenId",
          "type": "uint256"
        },
        {
          "indexed": true,
          "internalType": "address",
          "name": "nftContract",
          "type": "address"
        },
        {
          "indexed": false,
          "internalType": "address",
          "name": "seller",
          "type": "address"
        },
        {
          "indexed": false,
          "internalType": "uint256",
          "name": "price",
          "type": "uint256"
        }
      ],
      "name": "ItemListed",
      "type": "event"
    },
    {
      "anonymous": false,
      "inputs": [
        {
          "indexed": true,
          "internalType": "uint256",
          "name": "listingId",
          "type": "uint256"
        },
        {
          "indexed": true,
          "internalType": "uint256",
          "name": "tokenId",
          "type": "uint256"
        },
        {
          "indexed": true,
          "internalType": "address",
          "name": "nftContract",
          "type": "address"
        },
        {
          "indexed": false,
          "internalType": "address",
          "name": "seller",
          "type": "address"
        },
        {
          "indexed": false,
          "internalType": "address",
          "name": "buyer",
          "type": "address"
        },
        {
          "indexed": false,
          "internalType": "uint256",
          "name": "price",
          "type": "uint256"
        },
        {
          "indexed": false,
          "internalType": "uint256",
          "name": "fee",
          "type": "uint256"
        }
      ],
      "name": "ItemSold",
      "type": "event"
    },
    {
      "anonymous": false,
      "inputs": [
        {
          "indexed": true,
          "internalType": "address",
          "name": "previousOwner",
          "type": "address"
        },
        {
          "indexed": true,
          "internalType": "address",
          "name": "newOwner",
          "type": "address"
        }
      ],
      "name": "OwnershipTransferred",
      "type": "event"
    },
    {
      "inputs": [],
      "name": "FEE_DENOMINATOR",
      "outputs": [
        {
          "internalType": "uint256",
          "name": "",
          "type": "uint256"
        }
      ],
      "stateMutability": "view",
      "type": "function"
    },
    {
      "inputs": [],
      "name": "MARKETPLACE_FEE",
      "outputs": [
        {
          "internalType": "uint256",
          "name": "",
          "type": "uint256"
        }
      ],
      "stateMutability": "view",
      "type": "function"
    },
    {
      "inputs": [
        {
          "internalType": "uint256",
          "name": "listingId",
          "type": "uint256"
        }
      ],
      "name": "buyItem",
      "outputs": [],
      "stateMutability": "payable",
      "type": "function"
    },
    {
      "inputs": [
        {
          "internalType": "uint256",
          "name": "listingId",
          "type": "uint256"
        }
      ],
      "name": "delistItem",
      "outputs": [],
      "stateMutability": "nonpayable",
      "type": "function"
    },
    {
      "inputs": [],
      "name": "emergencyWithdraw",
      "outputs": [],
      "stateMutability": "nonpayable",
      "type": "function"
    },
    {
      "inputs": [],
      "name": "getCurrentListingId",
      "outputs": [
        {
          "internalType": "uint256",
          "name": "",
          "type": "uint256"
        }
      ],
      "stateMutability": "view",
      "type": "function"
    },
    {
      "inputs": [
        {
          "internalType": "uint256",
          "name": "listingId",
          "type": "uint256"
        }
      ],
      "name": "getListing",
      "outputs": [
        {
          "components": [
            {
              "internalType": "uint256",
              "name": "tokenId",
              "type": "uint256"
            },
            {
              "internalType": "address",
              "name": "nftContract",
              "type": "address"
            },
            {
              "internalType": "address",
              "name": "seller",
              "type": "address"
            },
            {
              "internalType": "uint256",
              "name": "price",
              "type": "uint256"
            },
            {
              "internalType": "bool",
              "name": "active",
              "type": "bool"
            }
          ],
          "internalType": "struct Marketplace.Listing",
          "name": "",
          "type": "tuple"
        }
      ],
      "stateMutability": "view",
      "type": "function"
    },
    {
      "inputs": [],
      "name": "getTotalListings",
      "outputs": [
        {
          "internalType": "uint256",
          "name": "",
          "type": "uint256"
        }
      ],
      "stateMutability": "view",
      "type": "function"
    },
    {
      "inputs": [
        {
          "internalType": "address",
          "name": "nftContract",
          "type": "address"
        },
        {
          "internalType": "uint256",
          "name": "tokenId",
          "type": "uint256"
        },
        {
          "internalType": "uint256",
          "name": "price",
          "type": "uint256"
        }
      ],
      "name": "listItem",
      "outputs": [
        {
          "internalType": "uint256",
          "name": "",
          "type": "uint256"
        }
      ],
      "stateMutability": "nonpayable",
      "type": "function"
    },
    {
      "inputs": [
        {
          "internalType": "uint256",
          "name": "",
          "type": "uint256"
        }
      ],
      "name": "listings",
      "outputs": [
        {
          "internalType": "uint256",
          "name": "tokenId",
          "type": "uint256"
        },
        {
          "internalType": "address",
          "name": "nftContract",
          "type": "address"
        },
        {
          "internalType": "address",
          "name": "seller",
          "type": "address"
        },
        {
          "internalType": "uint256",
          "name": "price",
          "type": "uint256"
        },
        {
          "internalType": "bool",
          "name": "active",
          "type": "bool"
        }
      ],
      "stateMutability": "view",
      "type": "function"
    },
    {
      "inputs": [
        {
          "internalType": "address",
          "name": "",
          "type": "address"
        },
        {
          "internalType": "address",
          "name": "",
          "type": "address"
        },
        {
          "internalType": "uint256",
          "name": "",
          "type": "uint256"
        },
        {
          "internalType": "bytes",
          "name": "",
          "type": "bytes"
        }
      ],
      "name": "onERC721Received",
      "outputs": [
        {
          "internalType": "bytes4",
          "name": "",
          "type": "bytes4"
        }
      ],
      "stateMutability": "pure",
      "type": "function"
    },
    {
      "inputs": [],
      "name": "owner",
      "outputs": [
        {
          "internalType": "address",
          "name": "",
          "type": "address"
        }
      ],
      "stateMutability": "view",
      "type": "function"
    },
    {
      "inputs": [],
      "name": "renounceOwnership",
      "outputs": [],
      "stateMutability": "nonpayable",
      "type": "function"
    },
    {
      "inputs": [],
      "name": "totalFeesCollected",
      "outputs": [
        {
          "internalType": "uint256",
          "name": "",
          "type": "uint256"
        }
      ],
      "stateMutability": "view",
      "type": "function"
    },
    {
      "inputs": [
        {
          "internalType": "address",
          "name": "newOwner",
          "type": "address"
        }
      ],
      "name": "transferOwnership",
      "outputs": [],
      "stateMutability": "nonpayable",
      "type": "function"
    },
    {
      "inputs": [
        {
          "internalType": "uint256",
          "name": "listingId",
          "type": "uint256"
        },
        {
          "internalType": "uint256",
          "name": "newPrice",
          "type": "uint256"
        }
      ],
      "name": "updateListingPrice",
      "outputs": [],
      "stateMutability": "nonpayable",
      "type": "function"
    },
    {
      "inputs": [],
      "name": "withdrawEarnings",
      "outputs": [],
      "stateMutability": "nonpayable",
      "type": "function"
    },
    {
      "inputs": [],
      "name": "withdrawFees",
      "outputs": [],
      "stateMutability": "nonpayable",
      "type": "function"
    },
    {
      "inputs": [
        {
          "internalType": "address",
          "name": "",
          "type": "address"
        }
      ],
      "name": "withdrawableEarnings",
      "outputs": [
        {
          "internalType": "uint256",
          "name": "",
          "type": "uint256"
        }
      ],
      "stateMutability": "view",
      "type": "function"
    }
  ],
  "bytecode": "0x608060405234801561001057600080fd5b506001600055338061003c57604051631e4fbdf760e01b81526000600482015260240160405180910390fd5b61004581610050565b5060016003556100a2565b600180546001600160a01b038381166001600160a01b0319831681179093556040519116919082907f8be0079c531659141344cd1fd0a4f28419497f9722a3daafe3b4186f6b6457e090600090a35050565b6113d4806100b16000396000f3fe6080604052600436106101145760003560e01c80639c103c61116100a0578063db2e21bc11610064578063db2e21bc146103b1578063de74e57b146103c6578063e7fb74c714610455578063f2fde38b14610468578063fbf30c351461048857600080fd5b80639c103c611461033c578063b73c6ce914610351578063be9ad61e14610366578063c46049431461037b578063d73792a91461039b57600080fd5b806360c6d8ae116100e757806360c6d8ae1461028e578063715018a6146102b257806389bfd38f146102c75780638da5cb5b146102e7578063954b31711461030f57600080fd5b80631006163114610119578063107a274a1461013b578063150b7a0214610234578063476343ee14610279575b600080fd5b34801561012557600080fd5b5061013961013436600461110a565b61049d565b005b34801561014757600080fd5b506101e261015636600461110a565b6040805160a08101825260008082526020820181905291810182905260608101829052608081019190915250600090815260026020818152604092839020835160a0810185528154815260018201546001600160a01b039081169382019390935292810154909116928201929092526003820154606082015260049091015460ff161515608082015290565b60408051825181526020808401516001600160a01b03908116918301919091528383015116918101919091526060808301519082015260809182015115159181019190915260a0015b60405180910390f35b34801561024057600080fd5b5061026061024f366004611138565b630a85bd0160e11b95945050505050565b6040516001600160e01b0319909116815260200161022b565b34801561028557600080fd5b50610139610592565b34801561029a57600080fd5b506102a460055481565b60405190815260200161022b565b3480156102be57600080fd5b5061013961069d565b3480156102d357600080fd5b506102a46102e23660046111d7565b6106af565b3480156102f357600080fd5b506001546040516001600160a01b03909116815260200161022b565b34801561031b57600080fd5b506102a461032a36600461120c565b60046020526000908152604090205481565b34801561034857600080fd5b506102a460fa81565b34801561035d57600080fd5b50610139610a42565b34801561037257600080fd5b506003546102a4565b34801561038757600080fd5b50610139610396366004611229565b610b21565b3480156103a757600080fd5b506102a461271081565b3480156103bd57600080fd5b50610139610c31565b3480156103d257600080fd5b5061041f6103e136600461110a565b60026020819052600091825260409091208054600182015492820154600383015460049093015491936001600160a01b039081169391169160ff1685565b604080519586526001600160a01b039485166020870152929093169184019190915260608301521515608082015260a00161022b565b61013961046336600461110a565b610c75565b34801561047457600080fd5b5061013961048336600461120c565b611010565b34801561049457600080fd5b506102a461104b565b6000818152600260205260409020600481015460ff166104d85760405162461bcd60e51b81526004016104cf9061124b565b60405180910390fd5b60028101546001600160a01b031633146105345760405162461bcd60e51b815260206004820152601b60248201527f4d61726b6574706c6163653a206e6f74207468652073656c6c6572000000000060448201526064016104cf565b60048101805460ff191690556001810154815460028301546040516001600160a01b03918216815292169184907f5daeab07e3582c5b51e560bdc20b9eb24aac2ce4b726d7e94a87e8e448ad86fc9060200160405180910390a45050565b61059a611061565b6105a261108e565b6000600554116105f45760405162461bcd60e51b815260206004820181905260248201527f4d61726b6574706c6163653a206e6f206665657320746f20776974686472617760448201526064016104cf565b6005805460009091556001546001600160a01b03166001600160a01b03166108fc829081150290604051600060405180830381858888f19350505050158015610641573d6000803e3d6000fd5b506001546001600160a01b03166001600160a01b03167fc0819c13be868895eb93e40eaceb96de976442fa1d404e5c55f14bb65a8c489a8260405161068891815260200190565b60405180910390a25061069b6001600055565b565b6106a5611061565b61069b60006110b8565b60006106b961108e565b6001600160a01b0384166107195760405162461bcd60e51b815260206004820152602160248201527f4d61726b6574706c6163653a20696e76616c6964204e465420636f6e747261636044820152601d60fa1b60648201526084016104cf565b600082116107395760405162461bcd60e51b81526004016104cf90611282565b6040516331a9108f60e11b815260048101849052849033906001600160a01b03831690636352211e90602401602060405180830381865afa158015610782573d6000803e3d6000fd5b505050506040513d601f19601f820116820180604052508101906107a691906112cb565b6001600160a01b0316146107fc5760405162461bcd60e51b815260206004820152601c60248201527f4d61726b6574706c6163653a206e6f7420746f6b656e206f776e65720000000060448201526064016104cf565b60405163020604bf60e21b81526004810185905230906001600160a01b0383169063081812fc90602401602060405180830381865afa158015610843573d6000803e3d6000fd5b505050506040513d601f19601f8201168201806040525081019061086791906112cb565b6001600160a01b031614806108e5575060405163e985e9c560e01b81523360048201523060248201526001600160a01b0382169063e985e9c590604401602060405180830381865afa1580156108c1573d6000803e3d6000fd5b505050506040513d601f19601f820116820180604052508101906108e591906112e8565b6109455760405162461bcd60e51b815260206004820152602b60248201527f4d61726b6574706c6163653a206e6f7420617070726f76656420746f2074726160448201526a3739b332b9103a37b5b2b760a91b60648201526084016104cf565b60038054908190600061095783611320565b90915550506040805160a0810182528681526001600160a01b03888116602080840182815233858701818152606087018c815260016080890181815260008c81526002808952908c90209a518b559551918a018054928a166001600160a01b031993841617905592519489018054959098169416939093179095559051600386015592516004909401805494151560ff199095169490941790935583519182529181018790529091879184917f97b82dd2100c1a4b2bd0c8de35bd15f99c25848de8431c6549f058fcf3d3cdbf910160405180910390a4915050610a3b6001600055565b9392505050565b610a4a61108e565b3360009081526004602052604090205480610ab35760405162461bcd60e51b8152602060048201526024808201527f4d61726b6574706c6163653a206e6f206561726e696e677320746f20776974686044820152636472617760e01b60648201526084016104cf565b336000818152600460205260408082208290555183156108fc0291849190818181858888f19350505050158015610aee573d6000803e3d6000fd5b5060405181815233907f48dc35af7b45e2a81fffad55f6e2fafacdb1d3d0d50d24ebdc16324f5ba757f190602001610688565b6000828152600260205260409020600481015460ff16610b535760405162461bcd60e51b81526004016104cf9061124b565b60028101546001600160a01b03163314610baf5760405162461bcd60e51b815260206004820152601b60248201527f4d61726b6574706c6163653a206e6f74207468652073656c6c6572000000000060448201526064016104cf565b60008211610bcf5760405162461bcd60e51b81526004016104cf90611282565b60038101829055600181015481546002830154604080516001600160a01b03928316815260208101879052919093169286917f97b82dd2100c1a4b2bd0c8de35bd15f99c25848de8431c6549f058fcf3d3cdbf910160405180910390a4505050565b610c39611061565b6001546040516001600160a01b03909116904780156108fc02916000818181858888f19350505050158015610c72573d6000803e3d6000fd5b50565b610c7d61108e565b6000818152600260205260409020600481015460ff16610caf5760405162461bcd60e51b81526004016104cf9061124b565b8060030154341015610d0d5760405162461bcd60e51b815260206004820152602160248201527f4d61726b6574706c6163653a20696e73756666696369656e74207061796d656e6044820152601d60fa1b60648201526084016104cf565b60028101546001600160a01b03163303610d695760405162461bcd60e51b815260206004820181905260248201527f4d61726b6574706c6163653a2063616e6e6f7420627579206f776e206974656d60448201526064016104cf565b6001810154600282015482546040516331a9108f60e11b815260048101919091526001600160a01b0392831692909116908290636352211e90602401602060405180830381865afa158015610dc2573d6000803e3d6000fd5b505050506040513d601f19601f82011682018060405250810190610de691906112cb565b6001600160a01b031614610e4d5760405162461bcd60e51b815260206004820152602860248201527f4d61726b6574706c6163653a2073656c6c6572206e6f206c6f6e676572206f776044820152673739903a37b5b2b760c11b60648201526084016104cf565b600061271060fa8460030154610e639190611339565b610e6d9190611356565b90506000818460030154610e819190611378565b6004808601805460ff1916905560028601546001600160a01b031660009081526020919091526040812080549293508392909190610ec090849061138b565b925050819055508160056000828254610ed9919061138b565b909155505060028401548454604051632142170760e11b81526001600160a01b0392831660048201523360248201526044810191909152908416906342842e0e90606401600060405180830381600087803b158015610f3757600080fd5b505af1158015610f4b573d6000803e3d6000fd5b505050508360030154341115610f9a57600384015433906108fc90610f709034611378565b6040518115909202916000818181858888f19350505050158015610f98573d6000803e3d6000fd5b505b6001840154845460028601546003870154604080516001600160a01b039384168152336020820152908101919091526060810186905292169187907f1e6a67cbf904feabd005b44246d2bd681c302ab1a46cb32e84f44f377ba7462d9060800160405180910390a450505050610c726001600055565b611018611061565b6001600160a01b03811661104257604051631e4fbdf760e01b8152600060048201526024016104cf565b610c72816110b8565b6000600160035461105c9190611378565b905090565b6001546001600160a01b0316331461069b5760405163118cdaa760e01b81523360048201526024016104cf565b6002600054036110b157604051633ee5aeb560e01b815260040160405180910390fd5b6002600055565b600180546001600160a01b038381166001600160a01b0319831681179093556040519116919082907f8be0079c531659141344cd1fd0a4f28419497f9722a3daafe3b4186f6b6457e090600090a35050565b60006020828403121561111c57600080fd5b5035919050565b6001600160a01b0381168114610c7257600080fd5b60008060008060006080868803121561115057600080fd5b853561115b81611123565b9450602086013561116b81611123565b935060408601359250606086013567ffffffffffffffff8082111561118f57600080fd5b818801915088601f8301126111a357600080fd5b8135818111156111b257600080fd5b8960208285010111156111c457600080fd5b9699959850939650602001949392505050565b6000806000606084860312156111ec57600080fd5b83356111f781611123565b95602085013595506040909401359392505050565b60006020828403121561121e57600080fd5b8135610a3b81611123565b6000806040838503121561123c57600080fd5b50508035926020909101359150565b6020808252601f908201527f4d61726b6574706c6163653a206c697374696e67206e6f742061637469766500604082015260600190565b60208082526029908201527f4d61726b6574706c6163653a207072696365206d75737420626520677265617460408201526806572207468616e20360bc1b606082015260800190565b6000602082840312156112dd57600080fd5b8151610a3b81611123565b6000602082840312156112fa57600080fd5b81518015158114610a3b57600080fd5b634e487b7160e01b600052601160045260246000fd5b6000600182016113325761133261130a565b5060010190565b80820281158282048414176113505761135061130a565b92915050565b60008261137357634e487b7160e01b600052601260045260246000fd5b500490565b818103818111156113505761135061130a565b808201808211156113505761135061130a56fea2646970667358221220d028d31d916388e73d6da97f9cc687b841d180a98612e349dd591d57cf3b488164736f6c63430008140033",
  "linkReferences": {},
  "deployedLinkReferences": {}
}